{
  "address": "0x5FbDB2315678afecb367f032d93F642f64180aa3",
  "abi": [
    {
      "inputs": [
        {
          "internalType": "address",
          "name": "_seller",
          "type": "address"
        },
        {
          "internalType": "string",
          "name": "_potatoUri",
          "type": "string"
        },
        {
          "internalType": "string",
          "name": "_onionUri",
          "type": "string"
        }
      ],
      "stateMutability": "nonpayable",
      "type": "constructor"
    },
    {
      "anonymous": false,
      "inputs": [
        {
          "indexed": true,
          "internalType": "address",
          "name": "account",
          "type": "address"
        },
        {
          "indexed": true,
          "internalType": "address",
          "name": "operator",
          "type": "address"
        },
        {
          "indexed": false,
          "internalType": "bool",
          "name": "approved",
          "type": "bool"
        }
      ],
      "name": "ApprovalForAll",
      "type": "event"
    },
    {
      "anonymous": false,
      "inputs": [
        {
          "indexed": true,
          "internalType": "address",
          "name": "previousOwner",
          "type": "address"
        },
        {
          "indexed": true,
          "internalType": "address",
          "name": "newOwner",
          "type": "address"
        }
      ],
      "name": "OwnershipTransferred",
      "type": "event"
    },
    {
      "anonymous": false,
      "inputs": [
        {
          "indexed": true,
          "internalType": "address",
          "name": "operator",
          "type": "address"
        },
        {
          "indexed": true,
          "internalType": "address",
          "name": "from",
          "type": "address"
        },
        {
          "indexed": true,
          "internalType": "address",
          "name": "to",
          "type": "address"
        },
        {
          "indexed": false,
          "internalType": "uint256[]",
          "name": "ids",
          "type": "uint256[]"
        },
        {
          "indexed": false,
          "internalType": "uint256[]",
          "name": "values",
          "type": "uint256[]"
        }
      ],
      "name": "TransferBatch",
      "type": "event"
    },
    {
      "anonymous": false,
      "inputs": [
        {
          "indexed": true,
          "internalType": "address",
          "name": "operator",
          "type": "address"
        },
        {
          "indexed": true,
          "internalType": "address",
          "name": "from",
          "type": "address"
        },
        {
          "indexed": true,
          "internalType": "address",
          "name": "to",
          "type": "address"
        },
        {
          "indexed": false,
          "internalType": "uint256",
          "name": "id",
          "type": "uint256"
        },
        {
          "indexed": false,
          "internalType": "uint256",
          "name": "value",
          "type": "uint256"
        }
      ],
      "name": "TransferSingle",
      "type": "event"
    },
    {
      "anonymous": false,
      "inputs": [
        {
          "indexed": false,
          "internalType": "string",
          "name": "value",
          "type": "string"
        },
        {
          "indexed": true,
          "internalType": "uint256",
          "name": "id",
          "type": "uint256"
        }
      ],
      "name": "URI",
      "type": "event"
    },
    {
      "inputs": [],
      "name": "ONION",
      "outputs": [
        {
          "internalType": "uint256",
          "name": "",
          "type": "uint256"
        }
      ],
      "stateMutability": "view",
      "type": "function"
    },
    {
      "inputs": [],
      "name": "POTATO",
      "outputs": [
        {
          "internalType": "uint256",
          "name": "",
          "type": "uint256"
        }
      ],
      "stateMutability": "view",
      "type": "function"
    },
    {
      "inputs": [
        {
          "internalType": "address",
          "name": "account",
          "type": "address"
        },
        {
          "internalType": "uint256",
          "name": "id",
          "type": "uint256"
        }
      ],
      "name": "balanceOf",
      "outputs": [
        {
          "internalType": "uint256",
          "name": "",
          "type": "uint256"
        }
      ],
      "stateMutability": "view",
      "type": "function"
    },
    {
      "inputs": [
        {
          "internalType": "address[]",
          "name": "accounts",
          "type": "address[]"
        },
        {
          "internalType": "uint256[]",
          "name": "ids",
          "type": "uint256[]"
        }
      ],
      "name": "balanceOfBatch",
      "outputs": [
        {
          "internalType": "uint256[]",
          "name": "",
          "type": "uint256[]"
        }
      ],
      "stateMutability": "view",
      "type": "function"
    },
    {
      "inputs": [
        {
          "internalType": "uint256",
          "name": "_id",
          "type": "uint256"
        },
        {
          "internalType": "uint256",
          "name": "_amount",
          "type": "uint256"
        }
      ],
      "name": "burn",
      "outputs": [],
      "stateMutability": "nonpayable",
      "type": "function"
    },
    {
      "inputs": [
        {
          "internalType": "uint256",
          "name": "_id",
          "type": "uint256"
        }
      ],
      "name": "getURI",
      "outputs": [
        {
          "internalType": "string",
          "name": "",
          "type": "string"
        }
      ],
      "stateMutability": "view",
      "type": "function"
    },
    {
      "inputs": [],
      "name": "greengrocer",
      "outputs": [
        {
          "internalType": "address",
          "name": "",
          "type": "address"
        }
      ],
      "stateMutability": "view",
      "type": "function"
    },
    {
      "inputs": [
        {
          "internalType": "address",
          "name": "account",
          "type": "address"
        },
        {
          "internalType": "address",
          "name": "operator",
          "type": "address"
        }
      ],
      "name": "isApprovedForAll",
      "outputs": [
        {
          "internalType": "bool",
          "name": "",
          "type": "bool"
        }
      ],
      "stateMutability": "view",
      "type": "function"
    },
    {
      "inputs": [
        {
          "internalType": "uint256",
          "name": "_id",
          "type": "uint256"
        },
        {
          "internalType": "uint256",
          "name": "_amount",
          "type": "uint256"
        }
      ],
      "name": "mint",
      "outputs": [],
      "stateMutability": "nonpayable",
      "type": "function"
    },
    {
      "inputs": [],
      "name": "onionUri",
      "outputs": [
        {
          "internalType": "string",
          "name": "",
          "type": "string"
        }
      ],
      "stateMutability": "view",
      "type": "function"
    },
    {
      "inputs": [],
      "name": "owner",
      "outputs": [
        {
          "internalType": "address",
          "name": "",
          "type": "address"
        }
      ],
      "stateMutability": "view",
      "type": "function"
    },
    {
      "inputs": [],
      "name": "potatoUri",
      "outputs": [
        {
          "internalType": "string",
          "name": "",
          "type": "string"
        }
      ],
      "stateMutability": "view",
      "type": "function"
    },
    {
      "inputs": [],
      "name": "renounceOwnership",
      "outputs": [],
      "stateMutability": "nonpayable",
      "type": "function"
    },
    {
      "inputs": [
        {
          "internalType": "address",
          "name": "from",
          "type": "address"
        },
        {
          "internalType": "address",
          "name": "to",
          "type": "address"
        },
        {
          "internalType": "uint256[]",
          "name": "ids",
          "type": "uint256[]"
        },
        {
          "internalType": "uint256[]",
          "name": "amounts",
          "type": "uint256[]"
        },
        {
          "internalType": "bytes",
          "name": "data",
          "type": "bytes"
        }
      ],
      "name": "safeBatchTransferFrom",
      "outputs": [],
      "stateMutability": "nonpayable",
      "type": "function"
    },
    {
      "inputs": [
        {
          "internalType": "address",
          "name": "from",
          "type": "address"
        },
        {
          "internalType": "address",
          "name": "to",
          "type": "address"
        },
        {
          "internalType": "uint256",
          "name": "id",
          "type": "uint256"
        },
        {
          "internalType": "uint256",
          "name": "amount",
          "type": "uint256"
        },
        {
          "internalType": "bytes",
          "name": "data",
          "type": "bytes"
        }
      ],
      "name": "safeTransferFrom",
      "outputs": [],
      "stateMutability": "nonpayable",
      "type": "function"
    },
    {
      "inputs": [],
      "name": "seller",
      "outputs": [
        {
          "internalType": "address",
          "name": "",
          "type": "address"
        }
      ],
      "stateMutability": "view",
      "type": "function"
    },
    {
      "inputs": [
        {
          "internalType": "address",
          "name": "operator",
          "type": "address"
        },
        {
          "internalType": "bool",
          "name": "approved",
          "type": "bool"
        }
      ],
      "name": "setApprovalForAll",
      "outputs": [],
      "stateMutability": "nonpayable",
      "type": "function"
    },
    {
      "inputs": [
        {
          "internalType": "address",
          "name": "_greengrocer",
          "type": "address"
        }
      ],
      "name": "setGreengrocer",
      "outputs": [],
      "stateMutability": "nonpayable",
      "type": "function"
    },
    {
      "inputs": [
        {
          "internalType": "bytes4",
          "name": "interfaceId",
          "type": "bytes4"
        }
      ],
      "name": "supportsInterface",
      "outputs": [
        {
          "internalType": "bool",
          "name": "",
          "type": "bool"
        }
      ],
      "stateMutability": "view",
      "type": "function"
    },
    {
      "inputs": [
        {
          "internalType": "address",
          "name": "newOwner",
          "type": "address"
        }
      ],
      "name": "transferOwnership",
      "outputs": [],
      "stateMutability": "nonpayable",
      "type": "function"
    },
    {
      "inputs": [
        {
          "internalType": "uint256",
          "name": "",
          "type": "uint256"
        }
      ],
      "name": "uri",
      "outputs": [
        {
          "internalType": "string",
          "name": "",
          "type": "string"
        }
      ],
      "stateMutability": "view",
      "type": "function"
    }
  ],
  "transactionHash": "0x43ae1d7a353fc4a31ce2062760e28e7d28b94e8fea0a80e92c921d8ba241f982",
  "args": [
    "0x3C44CdDdB6a900fa2b585dd299e03d12FA4293BC",
    "potato.com",
    "onion.com"
  ],
  "numDeployments": 1,
  "solcInputHash": "70571182af87bb76cd2a8aa6c9e11303",
  "bytecode": "0x60806040523480156200001157600080fd5b5060405162003d0338038062003d03833981810160405281019062000037919062000491565b604051806020016040528060008152506200005881620000f560201b60201c565b50620000796200006d6200011160201b60201c565b6200011960201b60201c565b82600460006101000a81548173ffffffffffffffffffffffffffffffffffffffff021916908373ffffffffffffffffffffffffffffffffffffffff1602179055508160069080519060200190620000d2929190620001df565b508060079080519060200190620000eb929190620001df565b5050505062000590565b80600290805190602001906200010d929190620001df565b5050565b600033905090565b6000600360009054906101000a900473ffffffffffffffffffffffffffffffffffffffff16905081600360006101000a81548173ffffffffffffffffffffffffffffffffffffffff021916908373ffffffffffffffffffffffffffffffffffffffff1602179055508173ffffffffffffffffffffffffffffffffffffffff168173ffffffffffffffffffffffffffffffffffffffff167f8be0079c531659141344cd1fd0a4f28419497f9722a3daafe3b4186f6b6457e060405160405180910390a35050565b828054620001ed906200055a565b90600052602060002090601f0160209004810192826200021157600085556200025d565b82601f106200022c57805160ff19168380011785556200025d565b828001600101855582156200025d579182015b828111156200025c5782518255916020019190600101906200023f565b5b5090506200026c919062000270565b5090565b5b808211156200028b57600081600090555060010162000271565b5090565b6000604051905090565b600080fd5b600080fd5b600073ffffffffffffffffffffffffffffffffffffffff82169050919050565b6000620002d082620002a3565b9050919050565b620002e281620002c3565b8114620002ee57600080fd5b50565b6000815190506200030281620002d7565b92915050565b600080fd5b600080fd5b6000601f19601f8301169050919050565b7f4e487b7100000000000000000000000000000000000000000000000000000000600052604160045260246000fd5b6200035d8262000312565b810181811067ffffffffffffffff821117156200037f576200037e62000323565b5b80604052505050565b6000620003946200028f565b9050620003a2828262000352565b919050565b600067ffffffffffffffff821115620003c557620003c462000323565b5b620003d08262000312565b9050602081019050919050565b60005b83811015620003fd578082015181840152602081019050620003e0565b838111156200040d576000848401525b50505050565b60006200042a6200042484620003a7565b62000388565b9050828152602081018484840111156200044957620004486200030d565b5b62000456848285620003dd565b509392505050565b600082601f83011262000476576200047562000308565b5b81516200048884826020860162000413565b91505092915050565b600080600060608486031215620004ad57620004ac62000299565b5b6000620004bd86828701620002f1565b935050602084015167ffffffffffffffff811115620004e157620004e06200029e565b5b620004ef868287016200045e565b925050604084015167ffffffffffffffff8111156200051357620005126200029e565b5b62000521868287016200045e565b9150509250925092565b7f4e487b7100000000000000000000000000000000000000000000000000000000600052602260045260246000fd5b600060028204905060018216806200057357607f821691505b602082108114156200058a57620005896200052b565b5b50919050565b61376380620005a06000396000f3fe608060405234801561001057600080fd5b50600436106101365760003560e01c8063715018a6116100b85780639f2685f71161007c5780639f2685f71461033d578063a22cb4651461035b578063b390c0ab14610377578063e985e9c514610393578063f242432a146103c3578063f2fde38b146103df57610136565b8063715018a6146102bd578063734df79d146102c75780638da5cb5b146102e557806396a37b3a1461030357806396a67bec1461032157610136565b80631b2ef1ca116100ff5780631b2ef1ca146102195780632eb2c2d61461023557806339e4a347146102515780634e1273f41461026f5780636cd478581461029f57610136565b8062fdd58e1461013b57806301ffc9a71461016b57806308551a531461019b5780630e89341c146101b95780631aa347dc146101e9575b600080fd5b61015560048036038101906101509190612143565b6103fb565b6040516101629190612192565b60405180910390f35b61018560048036038101906101809190612205565b6104c4565b604051610192919061224d565b60405180910390f35b6101a36105a6565b6040516101b09190612277565b60405180910390f35b6101d360048036038101906101ce9190612292565b6105cc565b6040516101e09190612358565b60405180910390f35b61020360048036038101906101fe9190612292565b610660565b6040516102109190612358565b60405180910390f35b610233600480360381019061022e919061237a565b610752565b005b61024f600480360381019061024a91906125b7565b610801565b005b6102596108a5565b6040516102669190612277565b60405180910390f35b61028960048036038101906102849190612749565b6108cb565b604051610296919061287f565b60405180910390f35b6102a76109e4565b6040516102b49190612358565b60405180910390f35b6102c5610a72565b005b6102cf610a86565b6040516102dc9190612192565b60405180910390f35b6102ed610a8b565b6040516102fa9190612277565b60405180910390f35b61030b610ab5565b6040516103189190612358565b60405180910390f35b61033b600480360381019061033691906128a1565b610b43565b005b610345610b8f565b6040516103529190612192565b60405180910390f35b610375600480360381019061037091906128fa565b610b94565b005b610391600480360381019061038c919061237a565b610baa565b005b6103ad60048036038101906103a8919061293a565b610c49565b6040516103ba919061224d565b60405180910390f35b6103dd60048036038101906103d8919061297a565b610cdd565b005b6103f960048036038101906103f491906128a1565b610d81565b005b60008073ffffffffffffffffffffffffffffffffffffffff168373ffffffffffffffffffffffffffffffffffffffff16141561046c576040517f08c379a000000000000000000000000000000000000000000000000000000000815260040161046390612a83565b60405180910390fd5b60008083815260200190815260200160002060008473ffffffffffffffffffffffffffffffffffffffff1673ffffffffffffffffffffffffffffffffffffffff16815260200190815260200160002054905092915050565b60007fd9b67a26000000000000000000000000000000000000000000000000000000007bffffffffffffffffffffffffffffffffffffffffffffffffffffffff1916827bffffffffffffffffffffffffffffffffffffffffffffffffffffffff1916148061058f57507f0e89341c000000000000000000000000000000000000000000000000000000007bffffffffffffffffffffffffffffffffffffffffffffffffffffffff1916827bffffffffffffffffffffffffffffffffffffffffffffffffffffffff1916145b8061059f575061059e82610e05565b5b9050919050565b600460009054906101000a900473ffffffffffffffffffffffffffffffffffffffff1681565b6060600280546105db90612ad2565b80601f016020809104026020016040519081016040528092919081815260200182805461060790612ad2565b80156106545780601f1061062957610100808354040283529160200191610654565b820191906000526020600020905b81548152906001019060200180831161063757829003601f168201915b50505050509050919050565b606060008214806106715750600182145b6106b0576040517f08c379a00000000000000000000000000000000000000000000000000000000081526004016106a790612b50565b60405180910390fd5b600082146106bf5760076106c2565b60065b80546106cd90612ad2565b80601f01602080910402602001604051908101604052809291908181526020018280546106f990612ad2565b80156107465780601f1061071b57610100808354040283529160200191610746565b820191906000526020600020905b81548152906001019060200180831161072957829003601f168201915b50505050509050919050565b600460009054906101000a900473ffffffffffffffffffffffffffffffffffffffff1673ffffffffffffffffffffffffffffffffffffffff163373ffffffffffffffffffffffffffffffffffffffff16146107e2576040517f08c379a00000000000000000000000000000000000000000000000000000000081526004016107d990612bbc565b60405180910390fd5b6107fd33838360405180602001604052806000815250610e6f565b5050565b600560009054906101000a900473ffffffffffffffffffffffffffffffffffffffff1673ffffffffffffffffffffffffffffffffffffffff163373ffffffffffffffffffffffffffffffffffffffff1614610891576040517f08c379a000000000000000000000000000000000000000000000000000000000815260040161088890612c4e565b60405180910390fd5b61089e8585858585611020565b5050505050565b600560009054906101000a900473ffffffffffffffffffffffffffffffffffffffff1681565b60608151835114610911576040517f08c379a000000000000000000000000000000000000000000000000000000000815260040161090890612ce0565b60405180910390fd5b6000835167ffffffffffffffff81111561092e5761092d6123bf565b5b60405190808252806020026020018201604052801561095c5781602001602082028036833780820191505090505b50905060005b84518110156109d9576109a985828151811061098157610980612d00565b5b602002602001015185838151811061099c5761099b612d00565b5b60200260200101516103fb565b8282815181106109bc576109bb612d00565b5b602002602001018181525050806109d290612d5e565b9050610962565b508091505092915050565b600780546109f190612ad2565b80601f0160208091040260200160405190810160405280929190818152602001828054610a1d90612ad2565b8015610a6a5780601f10610a3f57610100808354040283529160200191610a6a565b820191906000526020600020905b815481529060010190602001808311610a4d57829003601f168201915b505050505081565b610a7a6110c1565b610a84600061113f565b565b600181565b6000600360009054906101000a900473ffffffffffffffffffffffffffffffffffffffff16905090565b60068054610ac290612ad2565b80601f0160208091040260200160405190810160405280929190818152602001828054610aee90612ad2565b8015610b3b5780601f10610b1057610100808354040283529160200191610b3b565b820191906000526020600020905b815481529060010190602001808311610b1e57829003601f168201915b505050505081565b610b4b6110c1565b80600560006101000a81548173ffffffffffffffffffffffffffffffffffffffff021916908373ffffffffffffffffffffffffffffffffffffffff16021790555050565b600081565b610ba6610b9f611205565b838361120d565b5050565b600460009054906101000a900473ffffffffffffffffffffffffffffffffffffffff1673ffffffffffffffffffffffffffffffffffffffff163373ffffffffffffffffffffffffffffffffffffffff1614610c3a576040517f08c379a0000000000000000000000000000000000000000000000000000000008152600401610c3190612bbc565b60405180910390fd5b610c4533838361137a565b5050565b6000600160008473ffffffffffffffffffffffffffffffffffffffff1673ffffffffffffffffffffffffffffffffffffffff16815260200190815260200160002060008373ffffffffffffffffffffffffffffffffffffffff1673ffffffffffffffffffffffffffffffffffffffff16815260200190815260200160002060009054906101000a900460ff16905092915050565b600560009054906101000a900473ffffffffffffffffffffffffffffffffffffffff1673ffffffffffffffffffffffffffffffffffffffff163373ffffffffffffffffffffffffffffffffffffffff1614610d6d576040517f08c379a0000000000000000000000000000000000000000000000000000000008152600401610d6490612c4e565b60405180910390fd5b610d7a85858585856115c1565b5050505050565b610d896110c1565b600073ffffffffffffffffffffffffffffffffffffffff168173ffffffffffffffffffffffffffffffffffffffff161415610df9576040517f08c379a0000000000000000000000000000000000000000000000000000000008152600401610df090612e19565b60405180910390fd5b610e028161113f565b50565b60007f01ffc9a7000000000000000000000000000000000000000000000000000000007bffffffffffffffffffffffffffffffffffffffffffffffffffffffff1916827bffffffffffffffffffffffffffffffffffffffffffffffffffffffff1916149050919050565b600073ffffffffffffffffffffffffffffffffffffffff168473ffffffffffffffffffffffffffffffffffffffff161415610edf576040517f08c379a0000000000000000000000000000000000000000000000000000000008152600401610ed690612eab565b60405180910390fd5b6000610ee9611205565b90506000610ef685611662565b90506000610f0385611662565b9050610f14836000898585896116dc565b8460008088815260200190815260200160002060008973ffffffffffffffffffffffffffffffffffffffff1673ffffffffffffffffffffffffffffffffffffffff1681526020019081526020016000206000828254610f739190612ecb565b925050819055508673ffffffffffffffffffffffffffffffffffffffff16600073ffffffffffffffffffffffffffffffffffffffff168473ffffffffffffffffffffffffffffffffffffffff167fc3d58168c5ae7397731d063d5bbf3d657854427343f4c083240f7aacaa2d0f628989604051610ff1929190612f21565b60405180910390a4611008836000898585896116e4565b611017836000898989896116ec565b50505050505050565b611028611205565b73ffffffffffffffffffffffffffffffffffffffff168573ffffffffffffffffffffffffffffffffffffffff16148061106e575061106d85611068611205565b610c49565b5b6110ad576040517f08c379a00000000000000000000000000000000000000000000000000000000081526004016110a490612fbc565b60405180910390fd5b6110ba85858585856118d3565b5050505050565b6110c9611205565b73ffffffffffffffffffffffffffffffffffffffff166110e7610a8b565b73ffffffffffffffffffffffffffffffffffffffff161461113d576040517f08c379a000000000000000000000000000000000000000000000000000000000815260040161113490613028565b60405180910390fd5b565b6000600360009054906101000a900473ffffffffffffffffffffffffffffffffffffffff16905081600360006101000a81548173ffffffffffffffffffffffffffffffffffffffff021916908373ffffffffffffffffffffffffffffffffffffffff1602179055508173ffffffffffffffffffffffffffffffffffffffff168173ffffffffffffffffffffffffffffffffffffffff167f8be0079c531659141344cd1fd0a4f28419497f9722a3daafe3b4186f6b6457e060405160405180910390a35050565b600033905090565b8173ffffffffffffffffffffffffffffffffffffffff168373ffffffffffffffffffffffffffffffffffffffff16141561127c576040517f08c379a0000000000000000000000000000000000000000000000000000000008152600401611273906130ba565b60405180910390fd5b80600160008573ffffffffffffffffffffffffffffffffffffffff1673ffffffffffffffffffffffffffffffffffffffff16815260200190815260200160002060008473ffffffffffffffffffffffffffffffffffffffff1673ffffffffffffffffffffffffffffffffffffffff16815260200190815260200160002060006101000a81548160ff0219169083151502179055508173ffffffffffffffffffffffffffffffffffffffff168373ffffffffffffffffffffffffffffffffffffffff167f17307eab39ab6107e8899845ad3d59bd9653f200f220920489ca2b5937696c318360405161136d919061224d565b60405180910390a3505050565b600073ffffffffffffffffffffffffffffffffffffffff168373ffffffffffffffffffffffffffffffffffffffff1614156113ea576040517f08c379a00000000000000000000000000000000000000000000000000000000081526004016113e19061314c565b60405180910390fd5b60006113f4611205565b9050600061140184611662565b9050600061140e84611662565b905061142e838760008585604051806020016040528060008152506116dc565b600080600087815260200190815260200160002060008873ffffffffffffffffffffffffffffffffffffffff1673ffffffffffffffffffffffffffffffffffffffff168152602001908152602001600020549050848110156114c5576040517f08c379a00000000000000000000000000000000000000000000000000000000081526004016114bc906131de565b60405180910390fd5b84810360008088815260200190815260200160002060008973ffffffffffffffffffffffffffffffffffffffff1673ffffffffffffffffffffffffffffffffffffffff16815260200190815260200160002081905550600073ffffffffffffffffffffffffffffffffffffffff168773ffffffffffffffffffffffffffffffffffffffff168573ffffffffffffffffffffffffffffffffffffffff167fc3d58168c5ae7397731d063d5bbf3d657854427343f4c083240f7aacaa2d0f628989604051611592929190612f21565b60405180910390a46115b8848860008686604051806020016040528060008152506116e4565b50505050505050565b6115c9611205565b73ffffffffffffffffffffffffffffffffffffffff168573ffffffffffffffffffffffffffffffffffffffff16148061160f575061160e85611609611205565b610c49565b5b61164e576040517f08c379a000000000000000000000000000000000000000000000000000000000815260040161164590612fbc565b60405180910390fd5b61165b8585858585611bf5565b5050505050565b60606000600167ffffffffffffffff811115611681576116806123bf565b5b6040519080825280602002602001820160405280156116af5781602001602082028036833780820191505090505b50905082816000815181106116c7576116c6612d00565b5b60200260200101818152505080915050919050565b505050505050565b505050505050565b61170b8473ffffffffffffffffffffffffffffffffffffffff16611e91565b156118cb578373ffffffffffffffffffffffffffffffffffffffff1663f23a6e6187878686866040518663ffffffff1660e01b8152600401611751959493929190613253565b602060405180830381600087803b15801561176b57600080fd5b505af192505050801561179c57506040513d601f19601f8201168201806040525081019061179991906132c2565b60015b611842576117a86132fc565b806308c379a0141561180557506117bd61331e565b806117c85750611807565b806040517f08c379a00000000000000000000000000000000000000000000000000000000081526004016117fc9190612358565b60405180910390fd5b505b6040517f08c379a000000000000000000000000000000000000000000000000000000000815260040161183990613426565b60405180910390fd5b63f23a6e6160e01b7bffffffffffffffffffffffffffffffffffffffffffffffffffffffff1916817bffffffffffffffffffffffffffffffffffffffffffffffffffffffff1916146118c9576040517f08c379a00000000000000000000000000000000000000000000000000000000081526004016118c0906134b8565b60405180910390fd5b505b505050505050565b8151835114611917576040517f08c379a000000000000000000000000000000000000000000000000000000000815260040161190e9061354a565b60405180910390fd5b600073ffffffffffffffffffffffffffffffffffffffff168473ffffffffffffffffffffffffffffffffffffffff161415611987576040517f08c379a000000000000000000000000000000000000000000000000000000000815260040161197e906135dc565b60405180910390fd5b6000611991611205565b90506119a18187878787876116dc565b60005b8451811015611b525760008582815181106119c2576119c1612d00565b5b6020026020010151905060008583815181106119e1576119e0612d00565b5b60200260200101519050600080600084815260200190815260200160002060008b73ffffffffffffffffffffffffffffffffffffffff1673ffffffffffffffffffffffffffffffffffffffff16815260200190815260200160002054905081811015611a82576040517f08c379a0000000000000000000000000000000000000000000000000000000008152600401611a799061366e565b60405180910390fd5b81810360008085815260200190815260200160002060008c73ffffffffffffffffffffffffffffffffffffffff1673ffffffffffffffffffffffffffffffffffffffff168152602001908152602001600020819055508160008085815260200190815260200160002060008b73ffffffffffffffffffffffffffffffffffffffff1673ffffffffffffffffffffffffffffffffffffffff1681526020019081526020016000206000828254611b379190612ecb565b9250508190555050505080611b4b90612d5e565b90506119a4565b508473ffffffffffffffffffffffffffffffffffffffff168673ffffffffffffffffffffffffffffffffffffffff168273ffffffffffffffffffffffffffffffffffffffff167f4a39dc06d4c0dbc64b70af90fd698a233a518aa5d07e595d983b8c0526c8f7fb8787604051611bc992919061368e565b60405180910390a4611bdf8187878787876116e4565b611bed818787878787611eb4565b505050505050565b600073ffffffffffffffffffffffffffffffffffffffff168473ffffffffffffffffffffffffffffffffffffffff161415611c65576040517f08c379a0000000000000000000000000000000000000000000000000000000008152600401611c5c906135dc565b60405180910390fd5b6000611c6f611205565b90506000611c7c85611662565b90506000611c8985611662565b9050611c998389898585896116dc565b600080600088815260200190815260200160002060008a73ffffffffffffffffffffffffffffffffffffffff1673ffffffffffffffffffffffffffffffffffffffff16815260200190815260200160002054905085811015611d30576040517f08c379a0000000000000000000000000000000000000000000000000000000008152600401611d279061366e565b60405180910390fd5b85810360008089815260200190815260200160002060008b73ffffffffffffffffffffffffffffffffffffffff1673ffffffffffffffffffffffffffffffffffffffff168152602001908152602001600020819055508560008089815260200190815260200160002060008a73ffffffffffffffffffffffffffffffffffffffff1673ffffffffffffffffffffffffffffffffffffffff1681526020019081526020016000206000828254611de59190612ecb565b925050819055508773ffffffffffffffffffffffffffffffffffffffff168973ffffffffffffffffffffffffffffffffffffffff168573ffffffffffffffffffffffffffffffffffffffff167fc3d58168c5ae7397731d063d5bbf3d657854427343f4c083240f7aacaa2d0f628a8a604051611e62929190612f21565b60405180910390a4611e78848a8a86868a6116e4565b611e86848a8a8a8a8a6116ec565b505050505050505050565b6000808273ffffffffffffffffffffffffffffffffffffffff163b119050919050565b611ed38473ffffffffffffffffffffffffffffffffffffffff16611e91565b15612093578373ffffffffffffffffffffffffffffffffffffffff1663bc197c8187878686866040518663ffffffff1660e01b8152600401611f199594939291906136c5565b602060405180830381600087803b158015611f3357600080fd5b505af1925050508015611f6457506040513d601f19601f82011682018060405250810190611f6191906132c2565b60015b61200a57611f706132fc565b806308c379a01415611fcd5750611f8561331e565b80611f905750611fcf565b806040517f08c379a0000000000000000000000000000000000000000000000000000000008152600401611fc49190612358565b60405180910390fd5b505b6040517f08c379a000000000000000000000000000000000000000000000000000000000815260040161200190613426565b60405180910390fd5b63bc197c8160e01b7bffffffffffffffffffffffffffffffffffffffffffffffffffffffff1916817bffffffffffffffffffffffffffffffffffffffffffffffffffffffff191614612091576040517f08c379a0000000000000000000000000000000000000000000000000000000008152600401612088906134b8565b60405180910390fd5b505b505050505050565b6000604051905090565b600080fd5b600080fd5b600073ffffffffffffffffffffffffffffffffffffffff82169050919050565b60006120da826120af565b9050919050565b6120ea816120cf565b81146120f557600080fd5b50565b600081359050612107816120e1565b92915050565b6000819050919050565b6121208161210d565b811461212b57600080fd5b50565b60008135905061213d81612117565b92915050565b6000806040838503121561215a576121596120a5565b5b6000612168858286016120f8565b92505060206121798582860161212e565b9150509250929050565b61218c8161210d565b82525050565b60006020820190506121a76000830184612183565b92915050565b60007fffffffff0000000000000000000000000000000000000000000000000000000082169050919050565b6121e2816121ad565b81146121ed57600080fd5b50565b6000813590506121ff816121d9565b92915050565b60006020828403121561221b5761221a6120a5565b5b6000612229848285016121f0565b91505092915050565b60008115159050919050565b61224781612232565b82525050565b6000602082019050612262600083018461223e565b92915050565b612271816120cf565b82525050565b600060208201905061228c6000830184612268565b92915050565b6000602082840312156122a8576122a76120a5565b5b60006122b68482850161212e565b91505092915050565b600081519050919050565b600082825260208201905092915050565b60005b838110156122f95780820151818401526020810190506122de565b83811115612308576000848401525b50505050565b6000601f19601f8301169050919050565b600061232a826122bf565b61233481856122ca565b93506123448185602086016122db565b61234d8161230e565b840191505092915050565b60006020820190508181036000830152612372818461231f565b905092915050565b60008060408385031215612391576123906120a5565b5b600061239f8582860161212e565b92505060206123b08582860161212e565b9150509250929050565b600080fd5b7f4e487b7100000000000000000000000000000000000000000000000000000000600052604160045260246000fd5b6123f78261230e565b810181811067ffffffffffffffff82111715612416576124156123bf565b5b80604052505050565b600061242961209b565b905061243582826123ee565b919050565b600067ffffffffffffffff821115612455576124546123bf565b5b602082029050602081019050919050565b600080fd5b600061247e6124798461243a565b61241f565b905080838252602082019050602084028301858111156124a1576124a0612466565b5b835b818110156124ca57806124b6888261212e565b8452602084019350506020810190506124a3565b5050509392505050565b600082601f8301126124e9576124e86123ba565b5b81356124f984826020860161246b565b91505092915050565b600080fd5b600067ffffffffffffffff821115612522576125216123bf565b5b61252b8261230e565b9050602081019050919050565b82818337600083830152505050565b600061255a61255584612507565b61241f565b90508281526020810184848401111561257657612575612502565b5b612581848285612538565b509392505050565b600082601f83011261259e5761259d6123ba565b5b81356125ae848260208601612547565b91505092915050565b600080600080600060a086880312156125d3576125d26120a5565b5b60006125e1888289016120f8565b95505060206125f2888289016120f8565b945050604086013567ffffffffffffffff811115612613576126126120aa565b5b61261f888289016124d4565b935050606086013567ffffffffffffffff8111156126405761263f6120aa565b5b61264c888289016124d4565b925050608086013567ffffffffffffffff81111561266d5761266c6120aa565b5b61267988828901612589565b9150509295509295909350565b600067ffffffffffffffff8211156126a1576126a06123bf565b5b602082029050602081019050919050565b60006126c56126c084612686565b61241f565b905080838252602082019050602084028301858111156126e8576126e7612466565b5b835b8181101561271157806126fd88826120f8565b8452602084019350506020810190506126ea565b5050509392505050565b600082601f8301126127305761272f6123ba565b5b81356127408482602086016126b2565b91505092915050565b600080604083850312156127605761275f6120a5565b5b600083013567ffffffffffffffff81111561277e5761277d6120aa565b5b61278a8582860161271b565b925050602083013567ffffffffffffffff8111156127ab576127aa6120aa565b5b6127b7858286016124d4565b9150509250929050565b600081519050919050565b600082825260208201905092915050565b6000819050602082019050919050565b6127f68161210d565b82525050565b600061280883836127ed565b60208301905092915050565b6000602082019050919050565b600061282c826127c1565b61283681856127cc565b9350612841836127dd565b8060005b8381101561287257815161285988826127fc565b975061286483612814565b925050600181019050612845565b5085935050505092915050565b600060208201905081810360008301526128998184612821565b905092915050565b6000602082840312156128b7576128b66120a5565b5b60006128c5848285016120f8565b91505092915050565b6128d781612232565b81146128e257600080fd5b50565b6000813590506128f4816128ce565b92915050565b60008060408385031215612911576129106120a5565b5b600061291f858286016120f8565b9250506020612930858286016128e5565b9150509250929050565b60008060408385031215612951576129506120a5565b5b600061295f858286016120f8565b9250506020612970858286016120f8565b9150509250929050565b600080600080600060a08688031215612996576129956120a5565b5b60006129a4888289016120f8565b95505060206129b5888289016120f8565b94505060406129c68882890161212e565b93505060606129d78882890161212e565b925050608086013567ffffffffffffffff8111156129f8576129f76120aa565b5b612a0488828901612589565b9150509295509295909350565b7f455243313135353a2061646472657373207a65726f206973206e6f742061207660008201527f616c6964206f776e657200000000000000000000000000000000000000000000602082015250565b6000612a6d602a836122ca565b9150612a7882612a11565b604082019050919050565b60006020820190508181036000830152612a9c81612a60565b9050919050565b7f4e487b7100000000000000000000000000000000000000000000000000000000600052602260045260246000fd5b60006002820490506001821680612aea57607f821691505b60208210811415612afe57612afd612aa3565b5b50919050565b7f496e76616c696420696421000000000000000000000000000000000000000000600082015250565b6000612b3a600b836122ca565b9150612b4582612b04565b602082019050919050565b60006020820190508181036000830152612b6981612b2d565b9050919050565b7f43616c6c6572206973206e6f742073656c6c6572210000000000000000000000600082015250565b6000612ba66015836122ca565b9150612bb182612b70565b602082019050919050565b60006020820190508181036000830152612bd581612b99565b9050919050565b7f546f6b656e7320617265206e6f6e2d7472616e7366657261626c65206578636560008201527f707420627920677265656e67726f636572210000000000000000000000000000602082015250565b6000612c386032836122ca565b9150612c4382612bdc565b604082019050919050565b60006020820190508181036000830152612c6781612c2b565b9050919050565b7f455243313135353a206163636f756e747320616e6420696473206c656e67746860008201527f206d69736d617463680000000000000000000000000000000000000000000000602082015250565b6000612cca6029836122ca565b9150612cd582612c6e565b604082019050919050565b60006020820190508181036000830152612cf981612cbd565b9050919050565b7f4e487b7100000000000000000000000000000000000000000000000000000000600052603260045260246000fd5b7f4e487b7100000000000000000000000000000000000000000000000000000000600052601160045260246000fd5b6000612d698261210d565b91507fffffffffffffffffffffffffffffffffffffffffffffffffffffffffffffffff821415612d9c57612d9b612d2f565b5b600182019050919050565b7f4f776e61626c653a206e6577206f776e657220697320746865207a65726f206160008201527f6464726573730000000000000000000000000000000000000000000000000000602082015250565b6000612e036026836122ca565b9150612e0e82612da7565b604082019050919050565b60006020820190508181036000830152612e3281612df6565b9050919050565b7f455243313135353a206d696e7420746f20746865207a65726f2061646472657360008201527f7300000000000000000000000000000000000000000000000000000000000000602082015250565b6000612e956021836122ca565b9150612ea082612e39565b604082019050919050565b60006020820190508181036000830152612ec481612e88565b9050919050565b6000612ed68261210d565b9150612ee18361210d565b9250827fffffffffffffffffffffffffffffffffffffffffffffffffffffffffffffffff03821115612f1657612f15612d2f565b5b828201905092915050565b6000604082019050612f366000830185612183565b612f436020830184612183565b9392505050565b7f455243313135353a2063616c6c6572206973206e6f7420746f6b656e206f776e60008201527f6572206f7220617070726f766564000000000000000000000000000000000000602082015250565b6000612fa6602e836122ca565b9150612fb182612f4a565b604082019050919050565b60006020820190508181036000830152612fd581612f99565b9050919050565b7f4f776e61626c653a2063616c6c6572206973206e6f7420746865206f776e6572600082015250565b60006130126020836122ca565b915061301d82612fdc565b602082019050919050565b6000602082019050818103600083015261304181613005565b9050919050565b7f455243313135353a2073657474696e6720617070726f76616c2073746174757360008201527f20666f722073656c660000000000000000000000000000000000000000000000602082015250565b60006130a46029836122ca565b91506130af82613048565b604082019050919050565b600060208201905081810360008301526130d381613097565b9050919050565b7f455243313135353a206275726e2066726f6d20746865207a65726f206164647260008201527f6573730000000000000000000000000000000000000000000000000000000000602082015250565b60006131366023836122ca565b9150613141826130da565b604082019050919050565b6000602082019050818103600083015261316581613129565b9050919050565b7f455243313135353a206275726e20616d6f756e7420657863656564732062616c60008201527f616e636500000000000000000000000000000000000000000000000000000000602082015250565b60006131c86024836122ca565b91506131d38261316c565b604082019050919050565b600060208201905081810360008301526131f7816131bb565b9050919050565b600081519050919050565b600082825260208201905092915050565b6000613225826131fe565b61322f8185613209565b935061323f8185602086016122db565b6132488161230e565b840191505092915050565b600060a0820190506132686000830188612268565b6132756020830187612268565b6132826040830186612183565b61328f6060830185612183565b81810360808301526132a1818461321a565b90509695505050505050565b6000815190506132bc816121d9565b92915050565b6000602082840312156132d8576132d76120a5565b5b60006132e6848285016132ad565b91505092915050565b60008160e01c9050919050565b600060033d111561331b5760046000803e6133186000516132ef565b90505b90565b600060443d101561332e576133b1565b61333661209b565b60043d036004823e80513d602482011167ffffffffffffffff8211171561335e5750506133b1565b808201805167ffffffffffffffff81111561337c57505050506133b1565b80602083010160043d0385018111156133995750505050506133b1565b6133a8826020018501866123ee565b82955050505050505b90565b7f455243313135353a207472616e7366657220746f206e6f6e2d4552433131353560008201527f526563656976657220696d706c656d656e746572000000000000000000000000602082015250565b60006134106034836122ca565b915061341b826133b4565b604082019050919050565b6000602082019050818103600083015261343f81613403565b9050919050565b7f455243313135353a204552433131353552656365697665722072656a6563746560008201527f6420746f6b656e73000000000000000000000000000000000000000000000000602082015250565b60006134a26028836122ca565b91506134ad82613446565b604082019050919050565b600060208201905081810360008301526134d181613495565b9050919050565b7f455243313135353a2069647320616e6420616d6f756e7473206c656e6774682060008201527f6d69736d61746368000000000000000000000000000000000000000000000000602082015250565b60006135346028836122ca565b915061353f826134d8565b604082019050919050565b6000602082019050818103600083015261356381613527565b9050919050565b7f455243313135353a207472616e7366657220746f20746865207a65726f20616460008201527f6472657373000000000000000000000000000000000000000000000000000000602082015250565b60006135c66025836122ca565b91506135d18261356a565b604082019050919050565b600060208201905081810360008301526135f5816135b9565b9050919050565b7f455243313135353a20696e73756666696369656e742062616c616e636520666f60008201527f72207472616e7366657200000000000000000000000000000000000000000000602082015250565b6000613658602a836122ca565b9150613663826135fc565b604082019050919050565b600060208201905081810360008301526136878161364b565b9050919050565b600060408201905081810360008301526136a88185612821565b905081810360208301526136bc8184612821565b90509392505050565b600060a0820190506136da6000830188612268565b6136e76020830187612268565b81810360408301526136f98186612821565b9050818103606083015261370d8185612821565b90508181036080830152613721818461321a565b9050969550505050505056fea2646970667358221220b851caca21f3705bf2cc804053a5c2d7ebce379125b52556e94b3ae5f592dcd864736f6c63430008080033",
  "devdoc": {
    "kind": "dev",
    "methods": {
      "balanceOf(address,uint256)": {
        "details": "See {IERC1155-balanceOf}. Requirements: - `account` cannot be the zero address."
      },
      "balanceOfBatch(address[],uint256[])": {
        "details": "See {IERC1155-balanceOfBatch}. Requirements: - `accounts` and `ids` must have the same length."
      },
      "isApprovedForAll(address,address)": {
        "details": "See {IERC1155-isApprovedForAll}."
      },
      "owner()": {
        "details": "Returns the address of the current owner."
      },
      "renounceOwnership()": {
        "details": "Leaves the contract without owner. It will not be possible to call `onlyOwner` functions anymore. Can only be called by the current owner. NOTE: Renouncing ownership will leave the contract without an owner, thereby removing any functionality that is only available to the owner."
      },
      "safeBatchTransferFrom(address,address,uint256[],uint256[],bytes)": {
        "details": "See {IERC1155-safeBatchTransferFrom}."
      },
      "safeTransferFrom(address,address,uint256,uint256,bytes)": {
        "details": "See {IERC1155-safeTransferFrom}."
      },
      "setApprovalForAll(address,bool)": {
        "details": "See {IERC1155-setApprovalForAll}."
      },
      "supportsInterface(bytes4)": {
        "details": "See {IERC165-supportsInterface}."
      },
      "transferOwnership(address)": {
        "details": "Transfers ownership of the contract to a new account (`newOwner`). Can only be called by the current owner."
      },
      "uri(uint256)": {
        "details": "See {IERC1155MetadataURI-uri}. This implementation returns the same URI for *all* token types. It relies on the token type ID substitution mechanism https://eips.ethereum.org/EIPS/eip-1155#metadata[defined in the EIP]. Clients calling this function must replace the `\\{id\\}` substring with the actual token type ID."
      }
    },
    "version": 1
  },
  "userdoc": {
    "kind": "user",
    "methods": {},
    "version": 1
  },
  "storageLayout": {
    "storage": [
      {
        "astId": 138,
        "contract": "contracts/Products.sol:Products",
        "label": "_balances",
        "offset": 0,
        "slot": "0",
        "type": "t_mapping(t_uint256,t_mapping(t_address,t_uint256))"
      },
      {
        "astId": 144,
        "contract": "contracts/Products.sol:Products",
        "label": "_operatorApprovals",
        "offset": 0,
        "slot": "1",
        "type": "t_mapping(t_address,t_mapping(t_address,t_bool))"
      },
      {
        "astId": 146,
        "contract": "contracts/Products.sol:Products",
        "label": "_uri",
        "offset": 0,
        "slot": "2",
        "type": "t_string_storage"
      },
      {
        "astId": 7,
        "contract": "contracts/Products.sol:Products",
        "label": "_owner",
        "offset": 0,
        "slot": "3",
        "type": "t_address"
      },
      {
        "astId": 2071,
        "contract": "contracts/Products.sol:Products",
        "label": "seller",
        "offset": 0,
        "slot": "4",
        "type": "t_address"
      },
      {
        "astId": 2073,
        "contract": "contracts/Products.sol:Products",
        "label": "greengrocer",
        "offset": 0,
        "slot": "5",
        "type": "t_address"
      },
      {
        "astId": 2078,
        "contract": "contracts/Products.sol:Products",
        "label": "potatoUri",
        "offset": 0,
        "slot": "6",
        "type": "t_string_storage"
      },
      {
        "astId": 2083,
        "contract": "contracts/Products.sol:Products",
        "label": "onionUri",
        "offset": 0,
        "slot": "7",
        "type": "t_string_storage"
      }
    ],
    "types": {
      "t_address": {
        "encoding": "inplace",
        "label": "address",
        "numberOfBytes": "20"
      },
      "t_bool": {
        "encoding": "inplace",
        "label": "bool",
        "numberOfBytes": "1"
      },
      "t_mapping(t_address,t_bool)": {
        "encoding": "mapping",
        "key": "t_address",
        "label": "mapping(address => bool)",
        "numberOfBytes": "32",
        "value": "t_bool"
      },
      "t_mapping(t_address,t_mapping(t_address,t_bool))": {
        "encoding": "mapping",
        "key": "t_address",
        "label": "mapping(address => mapping(address => bool))",
        "numberOfBytes": "32",
        "value": "t_mapping(t_address,t_bool)"
      },
      "t_mapping(t_address,t_uint256)": {
        "encoding": "mapping",
        "key": "t_address",
        "label": "mapping(address => uint256)",
        "numberOfBytes": "32",
        "value": "t_uint256"
      },
      "t_mapping(t_uint256,t_mapping(t_address,t_uint256))": {
        "encoding": "mapping",
        "key": "t_uint256",
        "label": "mapping(uint256 => mapping(address => uint256))",
        "numberOfBytes": "32",
        "value": "t_mapping(t_address,t_uint256)"
      },
      "t_string_storage": {
        "encoding": "bytes",
        "label": "string",
        "numberOfBytes": "32"
      },
      "t_uint256": {
        "encoding": "inplace",
        "label": "uint256",
        "numberOfBytes": "32"
      }
    }
  }
}